{
  "contractName": "EnumerableToken",
  "abi": [
    {
      "constant": false,
      "inputs": [
        {
          "name": "_admin",
          "type": "address"
        }
      ],
      "name": "removeAdmin",
      "outputs": [
        {
          "name": "",
          "type": "bool"
        }
      ],
      "payable": true,
      "stateMutability": "payable",
      "type": "function"
    },
    {
      "constant": true,
      "inputs": [
        {
          "name": "",
          "type": "address"
        }
      ],
      "name": "isAdmin",
      "outputs": [
        {
          "name": "",
          "type": "bool"
        }
      ],
      "payable": false,
      "stateMutability": "view",
      "type": "function"
    },
    {
      "constant": false,
      "inputs": [
        {
          "name": "_admin",
          "type": "address"
        }
      ],
      "name": "addAdmin",
      "outputs": [
        {
          "name": "",
          "type": "bool"
        }
      ],
      "payable": true,
      "stateMutability": "payable",
      "type": "function"
    },
    {
      "constant": false,
      "inputs": [],
      "name": "renounceOwnership",
      "outputs": [],
      "payable": false,
      "stateMutability": "nonpayable",
      "type": "function"
    },
    {
      "constant": true,
      "inputs": [],
      "name": "owner",
      "outputs": [
        {
          "name": "",
          "type": "address"
        }
      ],
      "payable": false,
      "stateMutability": "view",
      "type": "function"
    },
    {
      "constant": false,
      "inputs": [
        {
          "name": "_newOwner",
          "type": "address"
        }
      ],
      "name": "transferOwnership",
      "outputs": [],
      "payable": false,
      "stateMutability": "nonpayable",
      "type": "function"
    },
    {
      "inputs": [],
      "payable": false,
      "stateMutability": "nonpayable",
      "type": "constructor"
    },
    {
      "anonymous": false,
      "inputs": [
        {
          "indexed": true,
          "name": "previousOwner",
          "type": "address"
        }
      ],
      "name": "OwnershipRenounced",
      "type": "event"
    },
    {
      "anonymous": false,
      "inputs": [
        {
          "indexed": true,
          "name": "previousOwner",
          "type": "address"
        },
        {
          "indexed": true,
          "name": "newOwner",
          "type": "address"
        }
      ],
      "name": "OwnershipTransferred",
      "type": "event"
    },
    {
      "constant": true,
      "inputs": [],
      "name": "getTokenOwnerCount",
      "outputs": [
        {
          "name": "",
          "type": "uint256"
        }
      ],
      "payable": false,
      "stateMutability": "view",
      "type": "function"
    },
    {
      "constant": true,
      "inputs": [
        {
          "name": "_index",
          "type": "uint256"
        }
      ],
      "name": "getTokenOwnerAtIndex",
      "outputs": [
        {
          "name": "",
          "type": "address"
        }
      ],
      "payable": false,
      "stateMutability": "view",
      "type": "function"
    },
    {
      "constant": true,
      "inputs": [
        {
          "name": "_address",
          "type": "address"
        }
      ],
      "name": "getTokenOwnersIndex",
      "outputs": [
        {
          "name": "",
          "type": "uint256"
        }
      ],
      "payable": false,
      "stateMutability": "view",
      "type": "function"
    }
  ],
  "bytecode": "0x6080604052600060025534801561001557600080fd5b5060008054600160a060020a03199081163317825590805260036020527f3617319a054d772f909f7c479a2cebe5066e836a939412e32403c99029b92eff80549091169055610499806100696000396000f3006080604052600436106100985763ffffffff7c01000000000000000000000000000000000000000000000000000000006000350416631785f53c811461009d57806324d7806c146100c557806370480275146100e6578063715018a6146100fa5780638da5cb5b14610111578063b25ed21414610142578063d9dccc0414610169578063eadf87e014610181578063f2fde38b146101a2575b600080fd5b6100b1600160a060020a03600435166101c3565b604080519115158252519081900360200190f35b3480156100d157600080fd5b506100b1600160a060020a0360043516610201565b6100b1600160a060020a0360043516610216565b34801561010657600080fd5b5061010f610256565b005b34801561011d57600080fd5b506101266102c2565b60408051600160a060020a039092168252519081900360200190f35b34801561014e57600080fd5b506101576102d1565b60408051918252519081900360200190f35b34801561017557600080fd5b50610126600435610312565b34801561018d57600080fd5b50610157600160a060020a0360043516610377565b3480156101ae57600080fd5b5061010f600160a060020a03600435166103cd565b60008054600160a060020a031633146101db57600080fd5b50600160a060020a03166000908152600160208190526040909120805460ff1916905590565b60016020526000908152604090205460ff1681565b60008054600160a060020a0316331461022e57600080fd5b50600160a060020a03166000908152600160208190526040909120805460ff19168217905590565b600054600160a060020a0316331461026d57600080fd5b60008054604051600160a060020a03909116917ff8df31144d9c2f0f6b59d69b8b98abd5459d07f2742c4df920b25aae33c6482091a26000805473ffffffffffffffffffffffffffffffffffffffff19169055565b600054600160a060020a031681565b60008054600160a060020a031633148061030057503360009081526001602081905260409091205460ff161515145b151561030b57600080fd5b5060025490565b60008054600160a060020a031633148061034157503360009081526001602081905260409091205460ff161515145b151561034c57600080fd5b60025482111561035b57600080fd5b50600090815260036020526040902054600160a060020a031690565b60008054600160a060020a03163314806103a657503360009081526001602081905260409091205460ff161515145b15156103b157600080fd5b50600160a060020a031660009081526004602052604090205490565b600054600160a060020a031633146103e457600080fd5b6103ed816103f0565b50565b600160a060020a038116151561040557600080fd5b60008054604051600160a060020a03808516939216917f8be0079c531659141344cd1fd0a4f28419497f9722a3daafe3b4186f6b6457e091a36000805473ffffffffffffffffffffffffffffffffffffffff1916600160a060020a03929092169190911790555600a165627a7a72305820124f955f49965b1aed7311c486360a36ff632e22604cada386cb409d5bda14520029",
  "source": "pragma solidity ^0.4.24;\n\nimport \"openzeppelin-solidity/contracts/math/SafeMath.sol\";\nimport \"openzeppelin-solidity/contracts/token/ERC20/SafeERC20.sol\";\nimport \"openzeppelin-solidity/contracts/token/ERC20/StandardToken.sol\";\nimport \"openzeppelin-solidity/contracts/token/ERC20/DetailedERC20.sol\";\nimport \"openzeppelin-solidity/contracts/token/ERC20/DetailedERC20.sol\";\nimport \"openzeppelin-solidity/contracts/ownership/Ownable.sol\";\n\ncontract MultiAdmin is Ownable{\n\tmapping (address => bool) public isAdmin;  \n    \n    modifier onlyAdmin() {\n        require(msg.sender == owner || isAdmin[msg.sender] == true);\n        _;\n    }\n\n    // add admin\n    function addAdmin(address _admin) payable public onlyOwner returns (bool) {\n        isAdmin[_admin]=true;\n        return true;\n    }\n    \n    // remove admin\n    function removeAdmin(address _admin) payable public onlyOwner returns (bool) {\n        isAdmin[_admin]=false;\n        return true;\n    }\n}\n\ncontract VaultedToken is BasicToken, MultiAdmin {\n\tusing SafeMath for uint256;\n\n\t// token vault\n    // \n    // each transfer will be put in the vault [address][transfer0...N][balance1...N]\n    // each transfer will be put in a separate transfer index \n    // each transfer will also increment tokenVaultCount per address\n    // each transfer's held date will be stored in tokenVaultReleaseDates per index\n    // \n    // tokenVault[0xda3e3b90775AE1a07e2Baf323B7608f41CB2E2a7][0] = 1000;\n    // tokenVault[0xda3e3b90775AE1a07e2Baf323B7608f41CB2E2a7][1] = 500;\n    // tokenVault[0xda3e3b90775AE1a07e2Baf323B7608f41CB2E2a7][2] = 300;\n    // tokenVaultCount[0xda3e3b90775AE1a07e2Baf323B7608f41CB2E2a7] == 3;\n    // tokenVaultReleaseDates[0xda3e3b90775AE1a07e2Baf323B7608f41CB2E2a7][0] = 1539105855; // now\n    // tokenVaultReleaseDates[0xda3e3b90775AE1a07e2Baf323B7608f41CB2E2a7][1] = 1570579200; // now + 1 year\n    // tokenVaultReleaseDates[0xda3e3b90775AE1a07e2Baf323B7608f41CB2E2a7][2] = 1541721600; // now + 1 month\n    mapping(address => mapping (uint => uint)) public tokenVault; // balance per address per transfer\n    mapping(address => mapping (uint => uint256)) public tokenVaultReleaseDates; // releaes dates per transfer\n    mapping(address => uint) public tokenVaultCount; // how many entries per address in the vault\n    \n    uint256 public holdingWallet = 0; // transfer tokens from owner to holding Vault and release upon vesting \t\n\n    event ReleasedVestedTokens(address indexed vested_address, uint256 vested_value);\n\n    constructor() \n    \tOwnable()\n    \tpublic {\n    \t\t\n    \t}\n\n    function vaultAddTransaction(address _address, uint256 _value, uint256 _releaseDate) internal {\n    \trequire(_address!=0x0);    \t\n\n    \tholdingWallet=holdingWallet.add(_value);\n\n    \tuint256 i = tokenVaultCount[_address];\n    \ttokenVault[_address][i] = _value;\n    \ttokenVaultCount[_address]=i.add(1);\n        tokenVaultReleaseDates[_address][i]=_releaseDate;    \n    }\n\n    //\n    function releaseVestedTransactions(address _address) public onlyOwner payable {\n    \t//address _address = msg.sender;\n    \trequire(_address!=0x0);\n\n        uint256 _vestedAmount=0;\n\n    \tfor(uint256 i=0; i<tokenVaultCount[_address]; i++)\n    \t{\n    \t\tif(tokenVaultReleaseDates[_address][i]<=block.timestamp)\n    \t\t{\n    \t\t\t// releaseable;\n\t\t\t\tuint256 amount = tokenVault[_address][i];\n    \t\t\tif(amount>0)\n                {\n                    tokenVault[_address][i]=0;\n                    _vestedAmount=_vestedAmount.add(amount);\n                    holdingWallet=holdingWallet.sub(amount);                                        \n                }\n    \t\t}\n    \t}\n\n        if(_vestedAmount>0)\n        {\n            super.transfer(_address,_vestedAmount);\n            emit ReleasedVestedTokens(_address, _vestedAmount);\n        }\n    }\n\n    function getTransactionCount(address _address) public view returns (uint256) {\n        require(_address!=0x0);\n        return tokenVaultCount[_address];\n    }\n\n    function getTransactionBalance(address _address, uint256 _txn_index) public view returns (uint256) {\n        require(_address!=0x0);\n        require(_txn_index<tokenVaultCount[_address]);\n        return tokenVault[_address][_txn_index];\n    }\n\n    function getTransactionVestingDate(address _address, uint256 _txn_index) public view returns (uint256) {\n        require(_address!=0x0);\n        require(_txn_index<tokenVaultCount[_address]);\n        return tokenVaultReleaseDates[_address][_txn_index];\n    }\n\n    function getHoldingWalletBalance() onlyAdmin public view returns (uint256) {\n        return(holdingWallet);\n    }\n}\n\n\ncontract EnumerableToken is MultiAdmin {\n\tusing SafeMath for uint256;\n\n\t// token owners\n    uint256 private numberOfTokenOwners = 0;\n    mapping (uint256 => address) private tokenOwnersList; // all the addresses of owners indexed by 0, 1, 2, ... , numberOfTokenOwners-1\n    mapping (address => uint256) private tokenOwnersListIndex; // address to index mapping\n\n    constructor() public {\n    \ttokenOwnersList[0] = 0x0;\t\n    }\n\n    function ownerAdd(address new_owner) internal {\n    \tif(tokenOwnersListIndex[new_owner] == 0)\t// make sure the owner does not exist before\n    \t{\n    \t\tnumberOfTokenOwners=numberOfTokenOwners.add(1);\t// it is one-based index\n\t    \ttokenOwnersList[numberOfTokenOwners]=new_owner;\n\t        tokenOwnersListIndex[new_owner]=numberOfTokenOwners;\t        \n\t    }   \n    }\n\n    function getTokenOwnerCount() public view onlyAdmin returns (uint256) {\n    \treturn numberOfTokenOwners;\n    }\n\n    // it is a one-based index\n    function getTokenOwnerAtIndex(uint256 _index) view onlyAdmin public returns (address) {\n    \trequire(_index<=numberOfTokenOwners);\n    \treturn tokenOwnersList[_index];\n    }\n\n    function getTokenOwnersIndex(address _address) view onlyAdmin public returns (uint256) {\n    \treturn tokenOwnersListIndex[_address];\n    }\n}\n\ncontract FoundersToken is VaultedToken {\n    using SafeMath for uint256;\n    using SafeERC20 for ERC20Basic;\n\n    uint constant MAX_FOUNDERS_COUNT = 10;\n    uint constant MAX_SCHEDULE_COUNT = 10;\n    uint constant FULLY_VESTED_STEP = MAX_SCHEDULE_COUNT; // better readibility\n\n    // founders \n    bool public foundersAreSet = false;         // ONLY ONE SETUP is allowed\n    uint8 public foundersVestingSteps;          // Number of vesting steps. For example, a three year vesting has three steps with 33.33% vesting each year\n    uint256 public foundersVestingTimeStep;\n    uint256 public foundersVestingCliff;\n    uint256[] public foundersVestingSchedule;\n    uint256 public foundersSetupDate;           // date when founders were setup\n\n    mapping ( address => bool ) public isFounder;\n\n    event foundersAreSetEvent();\n    event founderVestingSet(address _founder, uint _step, uint _value, uint _vestTime);\n    event founderRevokedEvent(address _founder);\n\n    constructor(uint8 _foundersVestingSteps, uint256 _foundersVestingCliff, uint256 _foundersVestingTimeStep) public\n            \n    {\n        require(_foundersVestingSteps>0 && _foundersVestingSteps<=MAX_SCHEDULE_COUNT);\n        require(_foundersVestingTimeStep>0);// to setup schedule after each timestep\n        \n        foundersAreSet = false;\n        foundersVestingSteps = _foundersVestingSteps;\n        foundersVestingCliff = _foundersVestingCliff;\n        foundersVestingTimeStep = _foundersVestingTimeStep;              \n    }\n\n    function oneTimeSetupForFounders(address[] _founders, uint256[] _values) public payable onlyOwner \n    {\n        require(foundersAreSet==false);\n        require(_founders.length>=0 && _founders.length<=MAX_FOUNDERS_COUNT);\n        require(_values.length==_founders.length);\n\n        uint256 nowTime = now;\n        foundersVestingSchedule = new uint256[](foundersVestingSteps);\n    \n        for(uint256  i=0; i<foundersVestingSteps; i++)\n        {\n            foundersVestingSchedule[i]=(nowTime.add(foundersVestingCliff).add(i.mul(foundersVestingTimeStep)));\n        }\n\n        uint256 _valuePerVestingStep=0;\n        for(f=0; f<_founders.length; f++)\n        {\n            _valuePerVestingStep=_values[f].div(foundersVestingSteps);\n            for(uint256 s=0; s<foundersVestingSteps; s++)\n            {                   \n                vaultAddTransaction(_founders[f], _valuePerVestingStep, foundersVestingSchedule[s]);\n                //emit founderVestingSet(_founders[f], s, _valuePerVestingStep, foundersVestingSchedule[s]);\n            }\n        }\n        \n        for(uint256 f=0; f<_founders.length; f++)\n        {\n            isFounder[_founders[f]]=true;\n        }\n\n        foundersSetupDate=nowTime;\n        foundersAreSet=true;\n\n        emit foundersAreSetEvent();\n    }\n\n    function revokeFoundersUnVestedTokens(address _founder) public onlyOwner payable returns (bool)\n    {\n        require(foundersAreSet==true);\n        require(isFounder[_founder]==true);\n        require(tokenVaultCount[_founder]>0 && tokenVaultCount[_founder]>=foundersVestingSteps);\n        // since there may be more than the vesting transactions, we should only work with the first\n        // so may transactions.\n        uint256 nowT=now;\n        uint256 _unvestedAmount=0;\n\n        for (uint256 i=0;i<foundersVestingSteps; i++)\n        {\n            if(tokenVaultReleaseDates[_founder][i]>nowT)\n            {\n                // have not vested yet\n                _unvestedAmount=tokenVault[_founder][i];\n                tokenVault[_founder][i]=0;                \n            }\n        }\n\n        if(_unvestedAmount>0)\n        {\n            // transfer to owner\n            super.transfer(owner, _unvestedAmount); \n            emit founderRevokedEvent(_founder);\n        }\n        \n        return true;\n    }\n\n    function isAFounder(address _address) public view returns (bool) {\n        require(foundersAreSet);\n        return isFounder[_address];\n    }\n}\n\ncontract GramIToken is StandardToken, DetailedERC20, MultiAdmin, VaultedToken, EnumerableToken, FoundersToken {\n\n    uint256 defaultHoldTimeInSeconds=0;   // same time added to each txn\n    uint256 defaultNoSellUnixTime=0;      // each txn is held till this unixtime\n    uint8 public _foundersVestingSteps=5;\n    uint256 _foundersVestingCliff=3600; \n    uint256 _foundersVestingTimeStep=1200;\n    bool bTransferInProgress=false;\n    bool bTransferPaused=false;\n\n    modifier onlyWhenNotPaused() {\n        require(bTransferPaused==false);\n        _;\n    }\n\n    event Paused();\n    event UnPaused();\n    event Mint(uint256 _mintCount, uint256 _newTotal);\n    event Burn(uint256 _burnCount, uint256 _newTotal);\n\n\tconstructor(string _name, string _symbol, uint8 _decimals, uint256 _defaultHoldTimeInSeconds, uint256 _defaultNoSellUnixTime) \n\t\tDetailedERC20(_name, _symbol, _decimals) \n\t\tEnumerableToken()\n\t\tVaultedToken()\n        FoundersToken(_foundersVestingSteps, _foundersVestingCliff, _foundersVestingTimeStep)\n\t\tpublic \n\t{\n        defaultHoldTimeInSeconds=_defaultHoldTimeInSeconds;\n        defaultNoSellUnixTime=_defaultNoSellUnixTime;\n\n\t\ttotalSupply_ = 100000000;\n\t\t\n        balances[owner] = totalSupply_;\n\t\taddTokenOwner(owner);\n\t}\n\n    function resetTransferInProgress() public payable onlyAdmin returns (bool) {\n        bTransferInProgress=false;\n    }\n\n    function addTransactionToVault(address _to, uint256 _value, uint256 _availableOn) public payable onlyOwner {\n        vaultAddTransaction(_to, _value, _availableOn);\n    }\n\n    function addTokenOwner(address _newOwner) public payable onlyOwner {\n        ownerAdd(_newOwner);\n    }\n\n    function setHoldTimeInSecondsForEachTransaction(uint256 _newDefault) public payable onlyAdmin {\n        defaultHoldTimeInSeconds=_newDefault;\n    }\n\n    function setNoSellUnixTimeLimit(uint256 _newDefault) public payable onlyAdmin {\n        defaultNoSellUnixTime=_newDefault;\n    }\n\n    function pauseTransfers() public payable onlyAdmin {\n        bTransferPaused=true;\n        emit Paused();\n    }\n\n    function unpauseTransfers() public payable onlyAdmin {\n        bTransferPaused=false;\n        emit UnPaused();\n    }\n\n    function mintTokens(uint256 _tokensToAdd) public payable onlyAdmin {\n        balances[owner]=balances[owner].add(_tokensToAdd);\n        totalSupply_=totalSupply_.add(_tokensToAdd);\n        emit Mint(_tokensToAdd, totalSupply_);\n    }\n\n    function burnTokens(uint256 _value) public payable onlyAdmin {\n        require(_value <= balances[owner]);\n        balances[owner] = balances[owner].sub(_value);\n        totalSupply_ = totalSupply_.sub(_value);\n        emit Burn(_value, totalSupply_);\n    }\n\n    function transfer(address _to, uint256 _value) public onlyWhenNotPaused returns (bool)  {\n\n        require(_value <= balances[msg.sender]);\n        require(_to != address(0));\n\n        if(defaultHoldTimeInSeconds>0 || defaultNoSellUnixTime>now)\n        {\n            require(bTransferInProgress==false);\n            bTransferInProgress=true;\n\n            uint256 _availableOn=now;\n\n            if(defaultHoldTimeInSeconds>0 && defaultNoSellUnixTime<=now)\n                _availableOn=now.add(defaultHoldTimeInSeconds);\n            else if(defaultNoSellUnixTime>=now && defaultHoldTimeInSeconds==0)\n                _availableOn=defaultNoSellUnixTime;\n\n            vaultAddTransaction(_to, _value, _availableOn);\n            balances[owner] = balances[owner].sub(_value);\n            bTransferInProgress=false;\n            emit Transfer(msg.sender, _to, _value);\n        }\n        else\n        {\n                require(super.transfer(_to, _value));\n        }\n\n        ownerAdd(_to);\n\n        return true;\n    }\n\n    // ------------------------------------------------------------------------\n    // Don't accept ETH\n    // ------------------------------------------------------------------------\n    function () public payable {\n        revert();\n    }\n    /**\n    * @dev Transfer all Ether held by the contract to the owner.\n    */\n    function reclaimEther() public onlyOwner {\n        owner.transfer(address(this).balance);\n    }\n}\n",
  "sourcePath": "/My Projects/Cryptocurrency/Ethereum/GramIToken/contracts/GramIToken.sol",
  "compiler": {
    "name": "solc",
    "version": "0.4.24+commit.e67f0147.Emscripten.clang"
  },
  "schemaVersion": "2.0.1",
  "updatedAt": "2018-10-17T03:55:22.948Z"
}