{
  "contractName": "FoundersToken",
  "abi": [
    {
      "constant": false,
      "inputs": [
        {
          "name": "_admin",
          "type": "address"
        }
      ],
      "name": "removeAdmin",
      "outputs": [
        {
          "name": "",
          "type": "bool"
        }
      ],
      "payable": true,
      "stateMutability": "payable",
      "type": "function"
    },
    {
      "constant": true,
      "inputs": [],
      "name": "totalSupply",
      "outputs": [
        {
          "name": "",
          "type": "uint256"
        }
      ],
      "payable": false,
      "stateMutability": "view",
      "type": "function"
    },
    {
      "constant": true,
      "inputs": [],
      "name": "foundersAreSet",
      "outputs": [
        {
          "name": "",
          "type": "bool"
        }
      ],
      "payable": false,
      "stateMutability": "view",
      "type": "function"
    },
    {
      "constant": true,
      "inputs": [
        {
          "name": "_address",
          "type": "address"
        }
      ],
      "name": "getTransactionCount",
      "outputs": [
        {
          "name": "",
          "type": "uint256"
        }
      ],
      "payable": false,
      "stateMutability": "view",
      "type": "function"
    },
    {
      "constant": true,
      "inputs": [
        {
          "name": "",
          "type": "address"
        }
      ],
      "name": "isAdmin",
      "outputs": [
        {
          "name": "",
          "type": "bool"
        }
      ],
      "payable": false,
      "stateMutability": "view",
      "type": "function"
    },
    {
      "constant": true,
      "inputs": [
        {
          "name": "",
          "type": "address"
        },
        {
          "name": "",
          "type": "uint256"
        }
      ],
      "name": "tokenVault",
      "outputs": [
        {
          "name": "",
          "type": "uint256"
        }
      ],
      "payable": false,
      "stateMutability": "view",
      "type": "function"
    },
    {
      "constant": true,
      "inputs": [],
      "name": "getHoldingWalletBalance",
      "outputs": [
        {
          "name": "",
          "type": "uint256"
        }
      ],
      "payable": false,
      "stateMutability": "view",
      "type": "function"
    },
    {
      "constant": true,
      "inputs": [
        {
          "name": "",
          "type": "address"
        },
        {
          "name": "",
          "type": "uint256"
        }
      ],
      "name": "tokenVaultReleaseDates",
      "outputs": [
        {
          "name": "",
          "type": "uint256"
        }
      ],
      "payable": false,
      "stateMutability": "view",
      "type": "function"
    },
    {
      "constant": false,
      "inputs": [
        {
          "name": "_admin",
          "type": "address"
        }
      ],
      "name": "addAdmin",
      "outputs": [
        {
          "name": "",
          "type": "bool"
        }
      ],
      "payable": true,
      "stateMutability": "payable",
      "type": "function"
    },
    {
      "constant": true,
      "inputs": [
        {
          "name": "_owner",
          "type": "address"
        }
      ],
      "name": "balanceOf",
      "outputs": [
        {
          "name": "",
          "type": "uint256"
        }
      ],
      "payable": false,
      "stateMutability": "view",
      "type": "function"
    },
    {
      "constant": false,
      "inputs": [],
      "name": "renounceOwnership",
      "outputs": [],
      "payable": false,
      "stateMutability": "nonpayable",
      "type": "function"
    },
    {
      "constant": true,
      "inputs": [],
      "name": "holdingWallet",
      "outputs": [
        {
          "name": "",
          "type": "uint256"
        }
      ],
      "payable": false,
      "stateMutability": "view",
      "type": "function"
    },
    {
      "constant": true,
      "inputs": [],
      "name": "owner",
      "outputs": [
        {
          "name": "",
          "type": "address"
        }
      ],
      "payable": false,
      "stateMutability": "view",
      "type": "function"
    },
    {
      "constant": true,
      "inputs": [
        {
          "name": "",
          "type": "uint256"
        }
      ],
      "name": "foundersVestingSchedule",
      "outputs": [
        {
          "name": "",
          "type": "uint256"
        }
      ],
      "payable": false,
      "stateMutability": "view",
      "type": "function"
    },
    {
      "constant": true,
      "inputs": [
        {
          "name": "_address",
          "type": "address"
        },
        {
          "name": "_txn_index",
          "type": "uint256"
        }
      ],
      "name": "getTransactionVestingDate",
      "outputs": [
        {
          "name": "",
          "type": "uint256"
        }
      ],
      "payable": false,
      "stateMutability": "view",
      "type": "function"
    },
    {
      "constant": true,
      "inputs": [
        {
          "name": "_address",
          "type": "address"
        },
        {
          "name": "_txn_index",
          "type": "uint256"
        }
      ],
      "name": "getTransactionBalance",
      "outputs": [
        {
          "name": "",
          "type": "uint256"
        }
      ],
      "payable": false,
      "stateMutability": "view",
      "type": "function"
    },
    {
      "constant": false,
      "inputs": [
        {
          "name": "_to",
          "type": "address"
        },
        {
          "name": "_value",
          "type": "uint256"
        }
      ],
      "name": "transfer",
      "outputs": [
        {
          "name": "",
          "type": "bool"
        }
      ],
      "payable": false,
      "stateMutability": "nonpayable",
      "type": "function"
    },
    {
      "constant": true,
      "inputs": [],
      "name": "foundersVestingCliff",
      "outputs": [
        {
          "name": "",
          "type": "uint256"
        }
      ],
      "payable": false,
      "stateMutability": "view",
      "type": "function"
    },
    {
      "constant": true,
      "inputs": [
        {
          "name": "",
          "type": "address"
        }
      ],
      "name": "isFounder",
      "outputs": [
        {
          "name": "",
          "type": "bool"
        }
      ],
      "payable": false,
      "stateMutability": "view",
      "type": "function"
    },
    {
      "constant": true,
      "inputs": [
        {
          "name": "",
          "type": "address"
        }
      ],
      "name": "tokenVaultCount",
      "outputs": [
        {
          "name": "",
          "type": "uint256"
        }
      ],
      "payable": false,
      "stateMutability": "view",
      "type": "function"
    },
    {
      "constant": true,
      "inputs": [],
      "name": "foundersVestingTimeStep",
      "outputs": [
        {
          "name": "",
          "type": "uint256"
        }
      ],
      "payable": false,
      "stateMutability": "view",
      "type": "function"
    },
    {
      "constant": true,
      "inputs": [],
      "name": "foundersVestingSteps",
      "outputs": [
        {
          "name": "",
          "type": "uint8"
        }
      ],
      "payable": false,
      "stateMutability": "view",
      "type": "function"
    },
    {
      "constant": true,
      "inputs": [],
      "name": "foundersSetupDate",
      "outputs": [
        {
          "name": "",
          "type": "uint256"
        }
      ],
      "payable": false,
      "stateMutability": "view",
      "type": "function"
    },
    {
      "constant": false,
      "inputs": [
        {
          "name": "_address",
          "type": "address"
        }
      ],
      "name": "releaseVestedTransactions",
      "outputs": [],
      "payable": true,
      "stateMutability": "payable",
      "type": "function"
    },
    {
      "constant": false,
      "inputs": [
        {
          "name": "_newOwner",
          "type": "address"
        }
      ],
      "name": "transferOwnership",
      "outputs": [],
      "payable": false,
      "stateMutability": "nonpayable",
      "type": "function"
    },
    {
      "inputs": [
        {
          "name": "_foundersVestingSteps",
          "type": "uint8"
        },
        {
          "name": "_foundersVestingCliff",
          "type": "uint256"
        },
        {
          "name": "_foundersVestingTimeStep",
          "type": "uint256"
        }
      ],
      "payable": false,
      "stateMutability": "nonpayable",
      "type": "constructor"
    },
    {
      "anonymous": false,
      "inputs": [],
      "name": "foundersAreSetEvent",
      "type": "event"
    },
    {
      "anonymous": false,
      "inputs": [
        {
          "indexed": false,
          "name": "_founder",
          "type": "address"
        },
        {
          "indexed": false,
          "name": "_step",
          "type": "uint256"
        },
        {
          "indexed": false,
          "name": "_value",
          "type": "uint256"
        },
        {
          "indexed": false,
          "name": "_vestTime",
          "type": "uint256"
        }
      ],
      "name": "founderVestingSet",
      "type": "event"
    },
    {
      "anonymous": false,
      "inputs": [
        {
          "indexed": false,
          "name": "_founder",
          "type": "address"
        }
      ],
      "name": "founderRevokedEvent",
      "type": "event"
    },
    {
      "anonymous": false,
      "inputs": [
        {
          "indexed": true,
          "name": "vested_address",
          "type": "address"
        },
        {
          "indexed": false,
          "name": "vested_value",
          "type": "uint256"
        }
      ],
      "name": "ReleasedVestedTokens",
      "type": "event"
    },
    {
      "anonymous": false,
      "inputs": [
        {
          "indexed": true,
          "name": "previousOwner",
          "type": "address"
        }
      ],
      "name": "OwnershipRenounced",
      "type": "event"
    },
    {
      "anonymous": false,
      "inputs": [
        {
          "indexed": true,
          "name": "previousOwner",
          "type": "address"
        },
        {
          "indexed": true,
          "name": "newOwner",
          "type": "address"
        }
      ],
      "name": "OwnershipTransferred",
      "type": "event"
    },
    {
      "anonymous": false,
      "inputs": [
        {
          "indexed": true,
          "name": "from",
          "type": "address"
        },
        {
          "indexed": true,
          "name": "to",
          "type": "address"
        },
        {
          "indexed": false,
          "name": "value",
          "type": "uint256"
        }
      ],
      "name": "Transfer",
      "type": "event"
    },
    {
      "constant": false,
      "inputs": [
        {
          "name": "_founders",
          "type": "address[]"
        },
        {
          "name": "_values",
          "type": "uint256[]"
        }
      ],
      "name": "oneTimeSetupForFounders",
      "outputs": [],
      "payable": true,
      "stateMutability": "payable",
      "type": "function"
    },
    {
      "constant": false,
      "inputs": [
        {
          "name": "_founder",
          "type": "address"
        }
      ],
      "name": "revokeFoundersUnVestedTokens",
      "outputs": [
        {
          "name": "",
          "type": "bool"
        }
      ],
      "payable": true,
      "stateMutability": "payable",
      "type": "function"
    },
    {
      "constant": true,
      "inputs": [
        {
          "name": "_address",
          "type": "address"
        }
      ],
      "name": "isAFounder",
      "outputs": [
        {
          "name": "",
          "type": "bool"
        }
      ],
      "payable": false,
      "stateMutability": "view",
      "type": "function"
    }
  ],
  "bytecode": "0x608060405260006007556008805460ff1916905534801561001f57600080fd5b5060405160608061119f83398101604090815281516020830151919092015160028054600160a060020a03191633179055600060ff84161180156100675750600a8360ff1611155b151561007257600080fd5b6000811161007f57600080fd5b6008805460ff949094166101000261ffff1990941693909317909255600a556009556110ef806100b06000396000f3006080604052600436106101695763ffffffff7c010000000000000000000000000000000000000000000000000000000060003504166306e81824811461016e5780631785f53c146101f157806318160ddd1461021957806318f279751461024057806323ca0cd21461025557806324d7806c14610276578063362ae9bb146102975780634552d0f8146102bb57806363fbaf45146102d0578063661facdc146102f4578063704802751461030857806370a082311461031c578063715018a61461033d5780637939d00f1461035257806386c2e03b146103735780638da5cb5b146103885780639c39071f146103b95780639f0b5f56146103d15780639ff188b7146103f5578063a9059cbb14610419578063b506da0c1461043d578063c7b5784114610452578063c89e567e14610473578063ce749a9414610494578063dc68631d146104a9578063eeaa274e146104d4578063f13f2fa7146104e9578063f2fde38b146104fd575b600080fd5b604080516020600480358082013583810280860185019096528085526101ef95369593946024949385019291829185019084908082843750506040805187358901803560208181028481018201909552818452989b9a99890198929750908201955093508392508501908490808284375094975061051e9650505050505050565b005b610205600160a060020a0360043516610788565b604080519115158252519081900360200190f35b34801561022557600080fd5b5061022e6107c7565b60408051918252519081900360200190f35b34801561024c57600080fd5b506102056107ce565b34801561026157600080fd5b5061022e600160a060020a03600435166107d7565b34801561028257600080fd5b50610205600160a060020a036004351661080a565b3480156102a357600080fd5b5061022e600160a060020a036004351660243561081f565b3480156102c757600080fd5b5061022e61083c565b3480156102dc57600080fd5b5061022e600160a060020a036004351660243561087e565b610205600160a060020a036004351661089b565b610205600160a060020a0360043516610a2f565b34801561032857600080fd5b5061022e600160a060020a0360043516610a72565b34801561034957600080fd5b506101ef610a8d565b34801561035e57600080fd5b50610205600160a060020a0360043516610afb565b34801561037f57600080fd5b5061022e610b2e565b34801561039457600080fd5b5061039d610b34565b60408051600160a060020a039092168252519081900360200190f35b3480156103c557600080fd5b5061022e600435610b43565b3480156103dd57600080fd5b5061022e600160a060020a0360043516602435610b62565b34801561040157600080fd5b5061022e600160a060020a0360043516602435610bc9565b34801561042557600080fd5b50610205600160a060020a0360043516602435610c2d565b34801561044957600080fd5b5061022e610d0c565b34801561045e57600080fd5b50610205600160a060020a0360043516610d12565b34801561047f57600080fd5b5061022e600160a060020a0360043516610d27565b3480156104a057600080fd5b5061022e610d39565b3480156104b557600080fd5b506104be610d3f565b6040805160ff9092168252519081900360200190f35b3480156104e057600080fd5b5061022e610d4d565b6101ef600160a060020a0360043516610d53565b34801561050957600080fd5b506101ef600160a060020a0360043516610eb9565b6002546000908190819081908190600160a060020a0316331461054057600080fd5b60085460ff161561055057600080fd5b60008751101580156105645750600a875111155b151561056f57600080fd5b865186511461057d57600080fd5b6008546040805161010090920460ff16808352602080820284010190915242965080156105b4578160200160208202803883390190505b5080516105c991600b9160209091019061105e565b50600093505b600854610100900460ff1684101561063e576106196105f960095486610edc90919063ffffffff16565b600a5461060d90889063ffffffff610f0516565b9063ffffffff610f0516565b600b80548690811061062757fe5b6000918252602090912001556001909301926105cf565b5060009150815b86518110156106e957600854865161068291610100900460ff169088908490811061066c57fe5b602090810290910101519063ffffffff610f1216565b9250600091505b600854610100900460ff168210156106e1576106d687828151811015156106ac57fe5b9060200190602002015184600b858154811015156106c657fe5b9060005260206000200154610f27565b600190910190610689565b600101610645565b5060005b8651811015610744576001600d6000898481518110151561070a57fe5b602090810291909101810151600160a060020a03168252810191909152604001600020805460ff19169115159190911790556001016106ed565b600c8590556008805460ff191660011790556040517fd383d4d2b0562ce31357f3c22ded84ff966af61debcae0cbd63a41297b0f25f490600090a150505050505050565b600254600090600160a060020a031633146107a257600080fd5b50600160a060020a03166000908152600360205260409020805460ff19169055600190565b6001545b90565b60085460ff1681565b6000600160a060020a03821615156107ee57600080fd5b50600160a060020a031660009081526006602052604090205490565b60036020526000908152604090205460ff1681565b600460209081526000928352604080842090915290825290205481565b600254600090600160a060020a031633148061086c57503360009081526003602052604090205460ff1615156001145b151561087757600080fd5b5060075490565b600560209081526000928352604080842090915290825290205481565b600254600090819081908190600160a060020a031633146108bb57600080fd5b60085460ff1615156001146108cf57600080fd5b600160a060020a0385166000908152600d602052604090205460ff1615156001146108f957600080fd5b600160a060020a0385166000908152600660205260408120541180156109425750600854600160a060020a03861660009081526006602052604090205461010090910460ff1611155b151561094d57600080fd5b5042915060009050805b600854610100900460ff168110156109c757600160a060020a03851660009081526005602090815260408083208484529091529020548310156109bf57600160a060020a03851660009081526004602090815260408083208484529091528120805491905591505b600101610957565b6000821115610a24576002546109e690600160a060020a031683610c2d565b5060408051600160a060020a038716815290517f3f93b2b721ab9f656d828ffb251ca213711b1167bda104410be17a8acb6953cd9181900360200190a15b506001949350505050565b600254600090600160a060020a03163314610a4957600080fd5b50600160a060020a03166000908152600360205260409020805460ff1916600190811790915590565b600160a060020a031660009081526020819052604090205490565b600254600160a060020a03163314610aa457600080fd5b600254604051600160a060020a03909116907ff8df31144d9c2f0f6b59d69b8b98abd5459d07f2742c4df920b25aae33c6482090600090a26002805473ffffffffffffffffffffffffffffffffffffffff19169055565b60085460009060ff161515610b0f57600080fd5b50600160a060020a03166000908152600d602052604090205460ff1690565b60075481565b600254600160a060020a031681565b600b805482908110610b5157fe5b600091825260209091200154905081565b6000600160a060020a0383161515610b7957600080fd5b600160a060020a0383166000908152600660205260409020548210610b9d57600080fd5b50600160a060020a03821660009081526005602090815260408083208484529091529020545b92915050565b6000600160a060020a0383161515610be057600080fd5b600160a060020a0383166000908152600660205260409020548210610c0457600080fd5b50600160a060020a03919091166000908152600460209081526040808320938352929052205490565b33600090815260208190526040812054821115610c4957600080fd5b600160a060020a0383161515610c5e57600080fd5b33600090815260208190526040902054610c7e908363ffffffff610fce16565b3360009081526020819052604080822092909255600160a060020a03851681522054610cb0908363ffffffff610f0516565b600160a060020a038416600081815260208181526040918290209390935580518581529051919233927fddf252ad1be2c89b69c2b068fc378daa952ba7f163c4a11628f55a4df523b3ef9281900390910190a350600192915050565b600a5481565b600d6020526000908152604090205460ff1681565b60066020526000908152604090205481565b60095481565b600854610100900460ff1681565b600c5481565b60025460009081908190600160a060020a03163314610d7157600080fd5b600160a060020a0384161515610d8657600080fd5b60009250600091505b600160a060020a038416600090815260066020526040902054821015610e5f57600160a060020a03841660009081526005602090815260408083208584529091529020544210610e545750600160a060020a038316600090815260046020908152604080832084845290915281205490811115610e5457600160a060020a0384166000908152600460209081526040808320858452909152812055610e3a838263ffffffff610f0516565b600754909350610e50908263ffffffff610fce16565b6007555b600190910190610d8f565b6000831115610eb357610e728484610c2d565b50604080518481529051600160a060020a038616917fee47a34ec5e247e72afbcd0d05fbb795c6663a36aaac50bd679f3ac3cc133463919081900360200190a25b50505050565b600254600160a060020a03163314610ed057600080fd5b610ed981610fe0565b50565b6000821515610eed57506000610bc3565b50818102818382811515610efd57fe5b0414610bc357fe5b81810182811015610bc357fe5b60008183811515610f1f57fe5b049392505050565b6000600160a060020a0384161515610f3e57600080fd5b600754610f51908463ffffffff610f0516565b60075550600160a060020a03831660009081526006602090815260408083205460048352818420818552909252909120839055610f9581600163ffffffff610f0516565b600160a060020a039094166000908152600660209081526040808320969096556005815285822092825291909152929092209190915550565b600082821115610fda57fe5b50900390565b600160a060020a0381161515610ff557600080fd5b600254604051600160a060020a038084169216907f8be0079c531659141344cd1fd0a4f28419497f9722a3daafe3b4186f6b6457e090600090a36002805473ffffffffffffffffffffffffffffffffffffffff1916600160a060020a0392909216919091179055565b828054828255906000526020600020908101928215611099579160200282015b8281111561109957825182559160200191906001019061107e565b506110a59291506110a9565b5090565b6107cb91905b808211156110a557600081556001016110af5600a165627a7a72305820688806814c79daf6bc092799af05577a284090a0016234d538c4b6e2a9e871640029",
  "source": "pragma solidity ^0.4.24;\n\nimport \"openzeppelin-solidity/contracts/math/SafeMath.sol\";\nimport \"openzeppelin-solidity/contracts/token/ERC20/SafeERC20.sol\";\nimport \"openzeppelin-solidity/contracts/token/ERC20/StandardToken.sol\";\nimport \"openzeppelin-solidity/contracts/token/ERC20/DetailedERC20.sol\";\nimport \"openzeppelin-solidity/contracts/token/ERC20/DetailedERC20.sol\";\nimport \"openzeppelin-solidity/contracts/ownership/Ownable.sol\";\n\ncontract MultiAdmin is Ownable{\n\tmapping (address => bool) public isAdmin;  \n    \n    modifier onlyAdmin() {\n        require(msg.sender == owner || isAdmin[msg.sender] == true);\n        _;\n    }\n\n    // add admin\n    function addAdmin(address _admin) payable public onlyOwner returns (bool) {\n        isAdmin[_admin]=true;\n        return true;\n    }\n    \n    // remove admin\n    function removeAdmin(address _admin) payable public onlyOwner returns (bool) {\n        isAdmin[_admin]=false;\n        return true;\n    }\n}\n\ncontract VaultedToken is BasicToken, MultiAdmin {\n\tusing SafeMath for uint256;\n\n\t// token vault\n    // \n    // each transfer will be put in the vault [address][transfer0...N][balance1...N]\n    // each transfer will be put in a separate transfer index \n    // each transfer will also increment tokenVaultCount per address\n    // each transfer's held date will be stored in tokenVaultReleaseDates per index\n    // \n    // tokenVault[0xda3e3b90775AE1a07e2Baf323B7608f41CB2E2a7][0] = 1000;\n    // tokenVault[0xda3e3b90775AE1a07e2Baf323B7608f41CB2E2a7][1] = 500;\n    // tokenVault[0xda3e3b90775AE1a07e2Baf323B7608f41CB2E2a7][2] = 300;\n    // tokenVaultCount[0xda3e3b90775AE1a07e2Baf323B7608f41CB2E2a7] == 3;\n    // tokenVaultReleaseDates[0xda3e3b90775AE1a07e2Baf323B7608f41CB2E2a7][0] = 1539105855; // now\n    // tokenVaultReleaseDates[0xda3e3b90775AE1a07e2Baf323B7608f41CB2E2a7][1] = 1570579200; // now + 1 year\n    // tokenVaultReleaseDates[0xda3e3b90775AE1a07e2Baf323B7608f41CB2E2a7][2] = 1541721600; // now + 1 month\n    mapping(address => mapping (uint => uint)) public tokenVault; // balance per address per transfer\n    mapping(address => mapping (uint => uint256)) public tokenVaultReleaseDates; // releaes dates per transfer\n    mapping(address => uint) public tokenVaultCount; // how many entries per address in the vault\n    \n    uint256 public holdingWallet = 0; // transfer tokens from owner to holding Vault and release upon vesting \t\n\n    event ReleasedVestedTokens(address indexed vested_address, uint256 vested_value);\n\n    constructor() \n    \tOwnable()\n    \tpublic {\n    \t\t\n    \t}\n\n    function vaultAddTransaction(address _address, uint256 _value, uint256 _releaseDate) internal {\n    \trequire(_address!=0x0);    \t\n\n    \tholdingWallet=holdingWallet.add(_value);\n\n    \tuint256 i = tokenVaultCount[_address];\n    \ttokenVault[_address][i] = _value;\n    \ttokenVaultCount[_address]=i.add(1);\n        tokenVaultReleaseDates[_address][i]=_releaseDate;    \n    }\n\n    //\n    function releaseVestedTransactions(address _address) public onlyOwner payable {\n    \t//address _address = msg.sender;\n    \trequire(_address!=0x0);\n\n        uint256 _vestedAmount=0;\n\n    \tfor(uint256 i=0; i<tokenVaultCount[_address]; i++)\n    \t{\n    \t\tif(tokenVaultReleaseDates[_address][i]<=block.timestamp)\n    \t\t{\n    \t\t\t// releaseable;\n\t\t\t\tuint256 amount = tokenVault[_address][i];\n    \t\t\tif(amount>0)\n                {\n                    tokenVault[_address][i]=0;\n                    _vestedAmount=_vestedAmount.add(amount);\n                    holdingWallet=holdingWallet.sub(amount);                                        \n                }\n    \t\t}\n    \t}\n\n        if(_vestedAmount>0)\n        {\n            super.transfer(_address,_vestedAmount);\n            emit ReleasedVestedTokens(_address, _vestedAmount);\n        }\n    }\n\n    function getTransactionCount(address _address) public view returns (uint256) {\n        require(_address!=0x0);\n        return tokenVaultCount[_address];\n    }\n\n    function getTransactionBalance(address _address, uint256 _txn_index) public view returns (uint256) {\n        require(_address!=0x0);\n        require(_txn_index<tokenVaultCount[_address]);\n        return tokenVault[_address][_txn_index];\n    }\n\n    function getTransactionVestingDate(address _address, uint256 _txn_index) public view returns (uint256) {\n        require(_address!=0x0);\n        require(_txn_index<tokenVaultCount[_address]);\n        return tokenVaultReleaseDates[_address][_txn_index];\n    }\n\n    function getHoldingWalletBalance() onlyAdmin public view returns (uint256) {\n        return(holdingWallet);\n    }\n}\n\n\ncontract EnumerableToken is MultiAdmin {\n\tusing SafeMath for uint256;\n\n\t// token owners\n    uint256 private numberOfTokenOwners = 0;\n    mapping (uint256 => address) private tokenOwnersList; // all the addresses of owners indexed by 0, 1, 2, ... , numberOfTokenOwners-1\n    mapping (address => uint256) private tokenOwnersListIndex; // address to index mapping\n\n    constructor() public {\n    \ttokenOwnersList[0] = 0x0;\t\n    }\n\n    function ownerAdd(address new_owner) internal {\n    \tif(tokenOwnersListIndex[new_owner] == 0)\t// make sure the owner does not exist before\n    \t{\n    \t\tnumberOfTokenOwners=numberOfTokenOwners.add(1);\t// it is one-based index\n\t    \ttokenOwnersList[numberOfTokenOwners]=new_owner;\n\t        tokenOwnersListIndex[new_owner]=numberOfTokenOwners;\t        \n\t    }   \n    }\n\n    function getTokenOwnerCount() public view onlyAdmin returns (uint256) {\n    \treturn numberOfTokenOwners;\n    }\n\n    // it is a one-based index\n    function getTokenOwnerAtIndex(uint256 _index) view onlyAdmin public returns (address) {\n    \trequire(_index<=numberOfTokenOwners);\n    \treturn tokenOwnersList[_index];\n    }\n\n    function getTokenOwnersIndex(address _address) view onlyAdmin public returns (uint256) {\n    \treturn tokenOwnersListIndex[_address];\n    }\n}\n\ncontract FoundersToken is VaultedToken {\n    using SafeMath for uint256;\n    using SafeERC20 for ERC20Basic;\n\n    uint constant MAX_FOUNDERS_COUNT = 10;\n    uint constant MAX_SCHEDULE_COUNT = 10;\n    uint constant FULLY_VESTED_STEP = MAX_SCHEDULE_COUNT; // better readibility\n\n    // founders \n    bool public foundersAreSet = false;         // ONLY ONE SETUP is allowed\n    uint8 public foundersVestingSteps;          // Number of vesting steps. For example, a three year vesting has three steps with 33.33% vesting each year\n    uint256 public foundersVestingTimeStep;\n    uint256 public foundersVestingCliff;\n    uint256[] public foundersVestingSchedule;\n    uint256 public foundersSetupDate;           // date when founders were setup\n\n    mapping ( address => bool ) public isFounder;\n\n    event foundersAreSetEvent();\n    event founderVestingSet(address _founder, uint _step, uint _value, uint _vestTime);\n    event founderRevokedEvent(address _founder);\n\n    constructor(uint8 _foundersVestingSteps, uint256 _foundersVestingCliff, uint256 _foundersVestingTimeStep) public\n            \n    {\n        require(_foundersVestingSteps>0 && _foundersVestingSteps<=MAX_SCHEDULE_COUNT);\n        require(_foundersVestingTimeStep>0);// to setup schedule after each timestep\n        \n        foundersAreSet = false;\n        foundersVestingSteps = _foundersVestingSteps;\n        foundersVestingCliff = _foundersVestingCliff;\n        foundersVestingTimeStep = _foundersVestingTimeStep;              \n    }\n\n    function oneTimeSetupForFounders(address[] _founders, uint256[] _values) public payable onlyOwner \n    {\n        require(foundersAreSet==false);\n        require(_founders.length>=0 && _founders.length<=MAX_FOUNDERS_COUNT);\n        require(_values.length==_founders.length);\n\n        uint256 nowTime = now;\n        foundersVestingSchedule = new uint256[](foundersVestingSteps);\n    \n        for(uint256  i=0; i<foundersVestingSteps; i++)\n        {\n            foundersVestingSchedule[i]=(nowTime.add(foundersVestingCliff).add(i.mul(foundersVestingTimeStep)));\n        }\n\n        uint256 _valuePerVestingStep=0;\n        for(f=0; f<_founders.length; f++)\n        {\n            _valuePerVestingStep=_values[f].div(foundersVestingSteps);\n            for(uint256 s=0; s<foundersVestingSteps; s++)\n            {                   \n                vaultAddTransaction(_founders[f], _valuePerVestingStep, foundersVestingSchedule[s]);\n                //emit founderVestingSet(_founders[f], s, _valuePerVestingStep, foundersVestingSchedule[s]);\n            }\n        }\n        \n        for(uint256 f=0; f<_founders.length; f++)\n        {\n            isFounder[_founders[f]]=true;\n        }\n\n        foundersSetupDate=nowTime;\n        foundersAreSet=true;\n\n        emit foundersAreSetEvent();\n    }\n\n    function revokeFoundersUnVestedTokens(address _founder) public onlyOwner payable returns (bool)\n    {\n        require(foundersAreSet==true);\n        require(isFounder[_founder]==true);\n        require(tokenVaultCount[_founder]>0 && tokenVaultCount[_founder]>=foundersVestingSteps);\n        // since there may be more than the vesting transactions, we should only work with the first\n        // so may transactions.\n        uint256 nowT=now;\n        uint256 _unvestedAmount=0;\n\n        for (uint256 i=0;i<foundersVestingSteps; i++)\n        {\n            if(tokenVaultReleaseDates[_founder][i]>nowT)\n            {\n                // have not vested yet\n                _unvestedAmount=tokenVault[_founder][i];\n                tokenVault[_founder][i]=0;                \n            }\n        }\n\n        if(_unvestedAmount>0)\n        {\n            // transfer to owner\n            super.transfer(owner, _unvestedAmount); \n            emit founderRevokedEvent(_founder);\n        }\n        \n        return true;\n    }\n\n    function isAFounder(address _address) public view returns (bool) {\n        require(foundersAreSet);\n        return isFounder[_address];\n    }\n}\n\ncontract GramIToken is StandardToken, DetailedERC20, MultiAdmin, VaultedToken, EnumerableToken, FoundersToken {\n\n    uint256 defaultHoldTimeInSeconds=0;   // same time added to each txn\n    uint256 defaultNoSellUnixTime=0;      // each txn is held till this unixtime\n    uint8 public _foundersVestingSteps=5;\n    uint256 _foundersVestingCliff=3600; \n    uint256 _foundersVestingTimeStep=1200;\n    bool bTransferInProgress=false;\n    bool bTransferPaused=false;\n\n    modifier onlyWhenNotPaused() {\n        require(bTransferPaused==false);\n        _;\n    }\n\n    event Paused();\n    event UnPaused();\n    event Mint(uint256 _mintCount, uint256 _newTotal);\n    event Burn(uint256 _burnCount, uint256 _newTotal);\n\n\tconstructor(string _name, string _symbol, uint8 _decimals, uint256 _defaultHoldTimeInSeconds, uint256 _defaultNoSellUnixTime) \n\t\tDetailedERC20(_name, _symbol, _decimals) \n\t\tEnumerableToken()\n\t\tVaultedToken()\n        FoundersToken(_foundersVestingSteps, _foundersVestingCliff, _foundersVestingTimeStep)\n\t\tpublic \n\t{\n        defaultHoldTimeInSeconds=_defaultHoldTimeInSeconds;\n        defaultNoSellUnixTime=_defaultNoSellUnixTime;\n\n\t\ttotalSupply_ = 100000000;\n\t\t\n        balances[owner] = totalSupply_;\n\t\taddTokenOwner(owner);\n\t}\n\n    function resetTransferInProgress() public payable onlyAdmin returns (bool) {\n        bTransferInProgress=false;\n    }\n\n    function addTransactionToVault(address _to, uint256 _value, uint256 _availableOn) public payable onlyOwner {\n        vaultAddTransaction(_to, _value, _availableOn);\n    }\n\n    function addTokenOwner(address _newOwner) public payable onlyOwner {\n        ownerAdd(_newOwner);\n    }\n\n    function setHoldTimeInSecondsForEachTransaction(uint256 _newDefault) public payable onlyAdmin {\n        defaultHoldTimeInSeconds=_newDefault;\n    }\n\n    function setNoSellUnixTimeLimit(uint256 _newDefault) public payable onlyAdmin {\n        defaultNoSellUnixTime=_newDefault;\n    }\n\n    function pauseTransfers() public payable onlyAdmin {\n        bTransferPaused=true;\n        emit Paused();\n    }\n\n    function unpauseTransfers() public payable onlyAdmin {\n        bTransferPaused=false;\n        emit UnPaused();\n    }\n\n    function mintTokens(uint256 _tokensToAdd) public payable onlyAdmin {\n        balances[owner]=balances[owner].add(_tokensToAdd);\n        totalSupply_=totalSupply_.add(_tokensToAdd);\n        emit Mint(_tokensToAdd, totalSupply_);\n    }\n\n    function burnTokens(uint256 _value) public payable onlyAdmin {\n        require(_value <= balances[owner]);\n        balances[owner] = balances[owner].sub(_value);\n        totalSupply_ = totalSupply_.sub(_value);\n        emit Burn(_value, totalSupply_);\n    }\n\n    function transfer(address _to, uint256 _value) public onlyWhenNotPaused returns (bool)  {\n\n        require(_value <= balances[msg.sender]);\n        require(_to != address(0));\n\n        if(defaultHoldTimeInSeconds>0 || defaultNoSellUnixTime>now)\n        {\n            require(bTransferInProgress==false);\n            bTransferInProgress=true;\n\n            uint256 _availableOn=now;\n\n            if(defaultHoldTimeInSeconds>0 && defaultNoSellUnixTime<=now)\n                _availableOn=now.add(defaultHoldTimeInSeconds);\n            else if(defaultNoSellUnixTime>=now && defaultHoldTimeInSeconds==0)\n                _availableOn=defaultNoSellUnixTime;\n\n            vaultAddTransaction(_to, _value, _availableOn);\n            balances[owner] = balances[owner].sub(_value);\n            bTransferInProgress=false;\n            emit Transfer(msg.sender, _to, _value);\n        }\n        else\n        {\n                require(super.transfer(_to, _value));\n        }\n\n        ownerAdd(_to);\n\n        return true;\n    }\n\n    // ------------------------------------------------------------------------\n    // Don't accept ETH\n    // ------------------------------------------------------------------------\n    function () public payable {\n        revert();\n    }\n    /**\n    * @dev Transfer all Ether held by the contract to the owner.\n    */\n    function reclaimEther() public onlyOwner {\n        owner.transfer(address(this).balance);\n    }\n}\n",
  "sourcePath": "/My Projects/Cryptocurrency/Ethereum/GramIToken/contracts/GramIToken.sol",
  "compiler": {
    "name": "solc",
    "version": "0.4.24+commit.e67f0147.Emscripten.clang"
  },
  "schemaVersion": "2.0.1",
  "updatedAt": "2018-10-17T03:55:23.013Z"
}